:02000002D0002C
:1040000000400D00E0730D00000006000C000501EB
:0840100004019A080000000001
:04401800C0700D0067
:1040200009480A49884208B505D0094A824202D0A7
:10403000121A02F095FF0748074A0021121A02F0EF
:104040009DFF014808BD00BF78E4032044730D00C4
:10405000ECE40320ECE40320EDE7032070B5074E09
:10406000074C01F03DFFA41BA4080025A54200D188
:1040700070BD56F8043B98470135F7E718730D00FB
:104080003C730D0000F0C8BB08B500F015F8BDE8A2
:10409000084001F0DDBE00F049BF00F04FBF0078DE
:1040A000B0FA80F04009704701230370704703683D
:1040B000C9B29B68184700002DE9F04F2DED028B27
:1040C0009FB001F059FF682101F013F801F054FF8F
:1040D0003B21FFF7ECFF01F04FFF002101F00CF84E
:1040E00001F04AFF06226821012300F0ECFF01F0F5
:1040F00043FF0368DFF8A4A35B69DFF8A4B3984724
:10410000044601F039FF03685B69984740EA0420E0
:1041100002F08EFB0022D44B02F0F4FB02F0CAFE48
:10412000CAF8000001F028FF03685B69984704465D
:1041300001F022FF03685B69984740EA042002F01F
:1041400077FB0022C84B02F0DDFB02F0B3FECBF898
:10415000000001F011FF03685B699847044601F015
:104160000BFF03685B69984740EA042002F060FB9C
:104170000022BD4B02F0C6FB02F09CFEBB4B064684
:104180001860DBF8000002F065FB0446DAF8000076
:104190000D4602F05FFB02460B463046CDE9002398
:1041A00002F058FBDDE90023804689461046194697
:1041B00002F0A8FB424606460F464B46404649469B
:1041C00002F0A0FB02460B463046394602F0E4F905
:1041D00041EC100B02F0B6F8204653EC102B2946A8
:1041E00002F0BAFC41EC100B01F0EEFEA04B51ECDA
:1041F000100B002202F086FB8BA3D3E9002302F010
:10420000ABFC8BA3D3E9002302F0C4F902F052FE09
:10421000984A1060DAF8000080F0004002F01AFBC3
:104220000446DBF800000D4602F014FB8F4B80467D
:104230001868894602F00EFB02460B4602F062FB4C
:10424000424606460F464B464046494602F05AFB58
:1042500002460B463046394602F09EF941EC100BFF
:1042600002F070F8204653EC102B294602F074FC43
:1042700041EC100B01F0A8FE7D4B7F4D7F4E804C32
:10428000DFF820827F4F51EC100B002202F03AFB46
:1042900065A3D3E9002302F05FFC67A3D3E9002301
:1042A00002F07AF902F006FE2B682360306000F01D
:1042B00061FC07EE900A94ED007ADFED736AF8EE88
:1042C000677AC5ED007A77EEC77A704D87EEA67AE9
:1042D00088ED007A01F050FE682100F00AFF01F03D
:1042E0004BFE4321FFF7E3FE01F046FE002100F004
:1042F00003FF01F041FE06226821012300F0E3FEE6
:1043000001F03AFE03685B699847044601F034FE09
:1043100003685B69984740EA042002F089FA48A3E1
:10432000D3E9002302F018FC02F0C4FD386001F06C
:1043300023FE03685B699847044601F01DFE03688D
:104340005B69984740EA042002F072FA3CA3D3E983
:10435000002302F001FC02F0ADFD286001F00CFE2C
:1043600003685B699847814601F006FE03685B6954
:1043700098470446386802F06DFA33A3D3E9002366
:1043800002F00AF902F096FDD5ED007A3860B0EE41
:10439000007A77EEC77A44EA0920C5ED007A02F088
:1043A00047FA27A3D3E9002302F0D6FB02F082FDEF
:1043B00002F050FA26A3D3E9002302F0EDF802F050
:1043C00079FD334F334B08EE100A1860386802F05D
:1043D00041FA21A3D3E9002302F094FA254A0446C6
:1043E00010680D4602F036FA1DA3D3E9002302F04F
:1043F00089FA02460B462046294602F0CDF802F023
:1044000059FD3860244F8146386802F023FA12A320
:10441000D3E9002302F076FA044630680D4602F034
:1044200019FA41E0AFF30080182D4454FB210940F4
:104430008FC2F5285C8FE23F48E17A14AE47F93F1E
:104440000000000000606040EC51B81E85EBE13FC9
:1044500048E17A14AE47E93FB81E85EB51B8EE3F0C
:104460007B14AE47E17AA43F0000103FFCE4032038
:104470000080664024E5032030E5032028E5032082
:104480005CE503200CE5032000007A4410E50320DE
:1044900038E5032014E503203CE50320F4E4032081
:1044A000F8E4032034E503202CA3D3E9002302F031
:1044B00029FA02460B462046294602F06DF802F022
:1044C000F9FC1D4B98ED007AC3F800901B4B1C497A
:1044D00018601C4B3860D3ED007A1B4DE8EE077A6C
:1044E00009A804ACC3ED007A00F034FA9AED000A92
:1044F00009A800F06EFA9BED000A09A800F069FA1D
:10450000124B09A893ED000A00F063FA104B0393D5
:104510000FCD0FC42B6823700E4B0F491B6803AAE5
:1045200009A800F081FA09A800F036FA1FB0BDEC26
:10453000028BBDE8F08F00BF60E5032058E5032043
:10454000D4700D00B0E5032044E50320FCE4032013
:1045500058710D0078E4032064E503207B14AE4716
:10456000E17AA43F000000002DE9F84F9C4C9D4FDC
:104570002DED068B254600262368C72B5EDC01F057
:10458000FBFC682100F0B5FD01F0F6FC3B21FFF7D4
:104590008EFD01F0F1FC002100F0AEFD01F0ECFC1D
:1045A00006226821012300F08EFD01F0E5FC03687E
:1045B0005B699847804601F0DFFC03685B699847B8
:1045C00040EA082002F034F932463B4602F09AF9FC
:1045D00002F070FC844B186001F0CEFC03685B694C
:1045E0009847804601F0C8FC03685B69984740EA39
:1045F000082002F01DF932463B4602F083F902F032
:1046000059FC7A4B186001F0B7FC03685B69984766
:10461000804601F0B1FC03685B69984740EA0820D6
:1046200002F006F93B46324602F06CF902F042FC19
:104630006F4B18602368013323609DE76D4B9FED3E
:104640006E8A93ED007ADFF8C481C7EE087A0FF224
:10465000881BDBE900ABC3ED007A684B93ED007A71
:10466000C7EE087AC3ED007A0023236001F084FCD2
:10467000682100F03EFD01F07FFC4321FFF717FDAC
:1046800001F07AFC002100F037FD01F075FC0622F4
:104690006821012300F017FD01F06EFC0368DFF8CC
:1046A00070915B699847044601F066FC03685B699A
:1046B000984740EA042007EE900AF8EEE77AC8ED42
:1046C000007A01F059FC03685B699847044601F0E1
:1046D00053FC03685B69984740EA042007EE900AA0
:1046E000F8EEE77AC9ED007A01F046FC03685B69F1
:1046F0009847044601F040FC03685B69984740EA2C
:10470000042007EE900A3E4BD8F800003D4CF8EE2E
:10471000E78AC3ED008A02F09DF852465B4602F03C
:104720001BFA064620680F4602F094F802460B4634
:104730003046394601F030FF02F0BCFB206009EE44
:10474000900AD9F80000DFF8CC9002F083F85246C6
:104750005B4602F001FA0646D9F800000F4602F067
:1047600079F802460B463046394601F015FF02F053
:10477000A1FB254EC9F8000009EE100A306802F0CE
:1047800069F841EC1A0B18EE900A02F063F85246F1
:104790005B4602F0E1F90B46024651EC1A0B01F0C0
:1047A000FBFE02F087FB2B6830600133C72B07EE5E
:1047B000900A2B607FF75AAF89EE887A84ED007AF1
:1047C00089EE087A89ED007A87EE887A86ED007A9C
:1047D000BDEC068BBDE8F88F000000000060604073
:1047E0002CE503200000103FF4E40320F8E403204C
:1047F000FCE40320ECE4032000004843F0E4032041
:1048000014E5032000E5032008E503200CE5032060
:1048100010E5032004E503202DE9F84301F092FAA6
:104820004FF4964101F07EFA002000F0ABF94FF012
:104830000009804641F287360027002000F0A2F9E7
:10484000B0EB080461EB0905AF4208BFA64207D3ED
:1048500001F078FA01F06AFA10B900F0F7FAECE723
:1048600001F070FA01F062FA01F086FB00F00EFC34
:1048700001F082FB682100F03CFC01F07DFB6B2124
:10488000FFF715FC01F078FB0021FFF710FC01F0A9
:1048900073FB012100F030FCFFF766FE142000F0EE
:1048A0006DFB00221048114D114C114600F0DAFE4C
:1048B00000226868114600F0F1FA48B94FF4FA7026
:1048C00000F05CFB01F03EFA214600F08DFDEFE7C1
:1048D00001F038FA074900F09AFD01F033FABDE81B
:1048E000F843054900F093BD64E5032028E7032061
:1048F000DA700D00DB700D00DC700D0007B50021D3
:10490000012000F087FA0C4B00221A609A809A71FD
:10491000A2F580329A60012000F06CFA074801F09D
:1049200093F86A230093A8220123C021044800F0D1
:1049300065FC03B05DF804FB18E5032064E5032083
:1049400040E503200023C0E9133303608362436022
:104950007047000070B504460D4608300D4900F060
:10496000D0FD04F12C060B4904F1180000F0C9FD3C
:104970000849304600F0C5FD064904F13C0000F04E
:10498000C0FD2046FFF7DEFF2946304600F0CDFD92
:10499000204670BDDB700D0010B50446006800F0C5
:1049A000CDFAA06A00F0CAFAE06C00F0C7FA04F190
:1049B0003C0000F05BFD04F12C0000F057FD04F119
:1049C000180000F053FD04F1080000F04FFD2046F0
:1049D00010BD38B5016D04460431C06C10EE105A9C
:1049E00000F0B4FAE064E8B1226DC5F307618154C8
:1049F000D4E913210A44C5F307415170D4E91321C6
:104A00000A44C5F307219170D4E913210A4404F143
:104A10003C00D570236D043323656621BDE8384022
:104A200000F0ACBD38BD00002DE9F04F8BB0D0F8E0
:104A30002C9000AF804648460D46C7E9023202F08E
:104A4000D1FA06460330800801F0E2FE3F4B002217
:104A500001F0A2FD02F006FAD8F83CA0C6EB8006F1
:104A60008400504602F0BEFA01348346044401300B
:104A7000800801F0CDFE354B002201F08DFD02F0E3
:104A8000F1F9CBF1030303EB800BD8F850303B6016
:104A90005C441C44E21D22F00702ADEB020D002134
:104AA0002246684602F06AFA484602F09BFA4946F6
:104AB0000246684602F054FA484602F093FA0DEBBB
:104AC00006022C211154484602F08CFA78605046B8
:104AD00002F088FA79680131024688196844514623
:104AE00002F03EFA484602F07DFA8146504602F056
:104AF00079FA484401303B68D8F84C1030445844A7
:104B00001A46684402F02CFA2B68FE68D3F8388005
:104B10000F4B3B6104360FCE07F1140CACE80F00CD
:104B200033688CF800303A8907F110012846C047F5
:104B30002B6822466946DB68284698472B6828463A
:104B40001B6C98472C37BD46BDE8F08F0000E03F56
:104B500058710D0008B5024B1B685B6C019308BDD2
:104B60004802030008B5024B1B685B68019308BD4F
:104B70001802030008B5024B1B685B69019308BD6E
:104B80001802030008B5024B1B68DB6D019308BDDA
:104B90001802030008B5024B1B68DB68019308BDCF
:104BA0002802030008B5024B1B689B69019308BDEE
:104BB0002802030008B5024B1B68DB69019308BD9E
:104BC0002802030008B5024B1B681B6A019308BD4D
:104BD0002802030008B5024B1B685B6A019308BDFD
:104BE0002802030008B5024B1B689B6A019308BDAD
:104BF0002802030008B5024B1B68DB6A019308BD5D
:104C00002802030008B5024B1B681B6B019308BD0B
:104C10002802030008B5024B1B681B6C019308BDFA
:104C20002802030008B5024B1B681B6D019308BDE9
:104C30002802030008B5024B1B685B69019308BD9D
:104C40006C02030008B5024B1B685B69019308BD49
:104C50006402030008B5024B1B681B6A019308BD80
:104C60006402030008B5024B1B685B6A019308BD30
:104C70006402030008B5024B1B689B6A019308BDE0
:104C80006402030008B5024B1B689B68019308BDD2
:104C90006802030008B5024B1B68DB68019308BD7E
:104CA0006802030008B5024B1B685B68019308BDEE
:104CB0003802030008B5024B1B689B69019308BDCD
:104CC0003802030008B5024B1B68DB69019308BD7D
:104CD0003802030008B5024B1B68DB6A019308BD6C
:104CE0003802030008B5024B1B685B6B019308BDDB
:104CF0003802030008B5024B1B689B6B019308BD8B
:104D00003802030008B5024B1B681B68019308BDFD
:104D10003C02030008B5024B1B68DB68019308BD29
:104D20003C02030008B5024B1B681B69019308BDD8
:104D30003C02030008B5024B1B685B69019308BD88
:104D40003C02030008B5024B1B689B69019308BD38
:104D50003C02030008B5024B1B68DB69019308BDE8
:104D60003C02030008B5024B1B689B6A019308BD17
:104D70003C02030008B5024B1B681B68019308BD89
:104D80004C02030008B5024B1B685B68019308BD29
:104D90004C02030008B5024B1B681B69019308BD58
:104DA0004C02030008B5024B1B685B69019308BD08
:104DB0004C02030008B5024B1B689B69019308BDB8
:104DC0004C02030008B5024B1B68DB69019308BD68
:104DD0004C02030008B5024B1B681B6A019308BD17
:104DE0004C02030008B5024B1B689B6A019308BD87
:104DF0004C02030008B5024B1B685B68019308BDB9
:104E00002002030008B5024B1B685B69019308BDD3
:104E10002002030008B5024B1B68DB6A019308BD42
:104E20002002030008B5034B1B68D3F888300193B8
:104E300008BD00002002030008B5034B1B68D3F82F
:104E40009430019308BD00002002030008B5024B16
:104E50001B689B68019308BD4402030008B5024B20
:104E60001B68DB6B019308BD4402030008B5024BCD
:104E70001B685B68019308BD4002030008B5024B44
:104E80001B689B68019308BD4002030008B5024BF4
:104E90001B68DB68019308BD4002030008B5024BA4
:104EA0001B681B69019308BD4002030008B5024B53
:104EB0001B685B69019308BD4002030008B5024B03
:104EC0001B689B69019308BD4002030008B5024BB3
:104ED0001B68DB69019308BD4002030008B5024B63
:104EE0001B681B6A019308BD4002030008B5024B12
:104EF0001B681B6B019308BD4002030008B5024B01
:104F00001B685B6B019308BD4002030008B5024BB0
:104F10001B681B6C019308BD4002030008B5024BDF
:104F20001B685B6C019308BD4002030008B5024B8F
:104F30001B681B68019308BD1C02030008B5024BE7
:104F40001B685B68019308BD1C02030008B5024B97
:104F50001B689B68019308BD1C02030008B5024B47
:104F60001B68DB6B019308BD1C02030008B5024BF4
:104F70001B685B6C019308BD1C0203000021FFF756
:104F800041BF0000024800230360FFF7E3BD00BFFC
:104F9000B4E50320002240681146FFF79FBF0022BE
:104FA00040681146FFF7AABF40680022FFF79EBF86
:104FB0004068002281F00101FFF788BF00234068AC
:104FC0001A461946FFF77ABF002340681A46194669
:104FD000FFF76CBF002240681146FFF75FBF002259
:104FE00040681146FFF74ABF406800220221FFF7E0
:104FF0004DBF002340681A46FFF738BF024B03221B
:105000005A60024A1A607047B8E50320F4700D0038
:105010007047F8B5064615460C468F18BC4206D0B8
:10502000336814F8011B9B6830469847F6E728461A
:10503000F8BD007C0022FFF7C5BD007C0021FFF712
:10504000C9BD007C0021FFF7CDBD007C0021FFF72A
:10505000D1BD007C0021FFF7D5BD10B51421044659
:1050600000F0AEFF204610BD10B54FF47A73044631
:1050700008460021C4E90113034B23602074114644
:10508000FFF7C8FD204610BD30710D000023007CE5
:105090001A461946FFF77EBD7FB500221423CDE9DD
:1050A0000122ADF804300B788DF808304B6803937B
:1050B000CB680493007C0B7A059301A9FFF7B2FD3E
:1050C00007B05DF804FB1FB5003B8DF800104FF0F2
:1050D0006401039118BF0123694601928DF80830DD
:1050E000FFF7DAFF05B05DF804FB007C0022FFF754
:1050F00059BDC9B2FFF7F9BF007C0022FFF75ABDC6
:10510000704710B51821044600F05AFF204610BD24
:10511000F0B5037D062B8DB00E4600F104074FF06D
:10512000000412D000F1080515F8011D0A223046CE
:1051300000F077F9AF42044419D0002CF4D02E21AE
:10514000304600F055F90444EEE72F236A4639460D
:105150000A208DF80040FFF775FD684601F042FF18
:1051600033680246DB686946304698470446204665
:105170000DB0F0BD10B5054B0446112240F8043BBC
:10518000002101F0FBFE204610BD00BF58710D004C
:105190000346074A10B543F8042B01F1100251F8F9
:1051A000044B43F8044B9142F9D10A781A7010BDB0
:1051B00058710D00037D042B04D14068003818BFDE
:1051C00001207047062B07D143683BB983682BB990
:1051D000C3681BB90069F1E70020704701207047E0
:1051E00010B59DF8084044EA032343EA024242EA2C
:1051F000016104234160037510BD000037B5044D03
:1052000005609DF818500095FFF7EAFF03B030BD28
:1052100058710D0013B5CB7800938B784A780978D4
:10522000FFF7DEFF02B010BD014B024A1A60704763
:10523000C0E5032064710D00002340681A46FFF7A3
:1052400015BE406800220221FFF720BE0022406800
:105250001146FFF713BE002240681146FFF71EBE3D
:10526000002340681A461946FFF720BE0023406815
:105270001A461946FFF722BE40680021FFF746BED6
:1052800040680021FFF74ABE4068002281F001011A
:10529000FFF71CBE40680022FFF728BE00224068CE
:1052A0001146FFF72BBE002240681146FFF716BEDD
:1052B0002DE9F043002495B016460D460746FFF74A
:1052C00059FF214618220EA8009401F057FE4023F2
:1052D000CDE90C3421466B460CAA3046FFF7DAFCC8
:1052E0000446002846D1024601216868FFF7D6FD32
:1052F0000221804622466868FFF7D0FD009E814665
:105300002146002E36D0002934D17368022B03D0F9
:105310000A2B0BD0F669F4E7B8F1000F04D07169DD
:1053200038460431FFF776FF4146F3E7B9F1000F45
:1053300001D14946EEE77469102201A801F01EFE72
:1053400006238DF8143001AD04F1080318341868F1
:1053500059682A4603C20833A3421546F7D101A96A
:1053600006A807ADFFF714FF0FCD3C1D0FC42B6837
:105370002370DEE70098FFF785FC384615B0BDE8DE
:10538000F0830000024B034A1A6000225A60704703
:10539000C4E5032070710D00F8B506460D468F1860
:1053A0000024BD420CD0336815F8011B9B683046C1
:1053B0009847031E01DB1C44F3E7002C08BF1C4682
:1053C0002046F8BD13B50446084659B1019101F0D5
:1053D00009FE23680199DB680246204602B0BDE859
:1053E0001040184702B010BD08B5FFF7EBFF08BD2D
:1053F00003689B68184738B50D210546FFF7F8FF8D
:105400000A2104462846FFF7F3FF204438BD38B58B
:105410000546FFF7D7FF04462846FFF7ECFF204478
:1054200038BD30B58BB000238DF82430012A98BFE9
:105430000A2209AC0D46B1FBF2F101FB125303F055
:10544000FF03092B94BF30333733DBB2AA4204F891
:10545000013DEFD92146FFF7B5FF0BB030BD00008D
:10546000014B00229A607047CCE5032010B504463A
:105470000068FFF763FD204610BD10B504460068C4
:1054800008B1FFF75BFD0023C4E90133236010BDC1
:1054900038B504460D4600680131FFF757FD10B1DD
:1054A000C4E90005012038BD10B50368044623B1E6
:1054B00043688B4201D3012010BD2046FFF7E8FF6F
:1054C0000028F9D0A368002BF5D122681370F2E709
:1054D00037B50D46114601920446FFF7E5FF019AE4
:1054E00028B92046FFF7C9FF204603B030BDA260AF
:1054F0002946206801F034FD2268A3680021D154B8
:10550000F2E7002313B5C0E9003304468360037358
:1055100041B10846019101F065FD0199024620461E
:10552000FFF7D6FF204602B010BD13B5044659B1AF
:105530000846019101F056FD019902462046FFF709
:10554000C7FF204602B010BDFFF797FFF9E770B51F
:1055500005460E4609B9002070BD6AB1846814443E
:105560002146FFF7A1FF0028F5D02868AB68314637
:10557000184401F02FFDAC600120EDE707B50023D2
:105580008DF80410012201A98DF80530FFF7DFFF27
:1055900003B05DF804FB0000054B02221A60054BC6
:1055A000054A9A600020186098809871FFF722BC25
:1055B000E8E50320DCE503200000FFFF024B1A684A
:1055C000024B1A60704700BF7CE40320ECE5032027
:1055D00010B40468246BA4465DF8044B604703686C
:1055E0009B6C1847808E7047028FC08E101A7047D0
:1055F00007B503688DF80710DB6801220DF107017C
:10560000984703B05DF804FB10B503681B690446B6
:10561000984728B1E38EE26B591CE186D05C10BD3F
:105620004FF0FF30FBE710B503681B69044698474D
:1056300018B1E38EE26BD05C10BD4FF0FF30FBE79A
:10564000704710B403460846DC6BD98E1A8F036886
:10565000521ADB6821445DF8044B1847A0F1100092
:10566000FFF7EFBF70B503688CB05B6A04460E4667
:105670001546984701231C22002105A8029301F03A
:105680007DFC40F61C233046ADF81430FFF7F2FAEB
:105690001122ADF8160002210A20FFF72BFB00288B
:1056A000606125DB0422009202AB40F6FF71FFF738
:1056B00001FBE8B995B10390ADF8100003A9E8B279
:1056C000FFF7B8FAA0B906230093606903AB41F273
:1056D0000B0240F6FF71FFF7EDFA48B960691C2232
:1056E00005A9FFF7DFFA18B9656401200CB070BD99
:1056F000236820465B6A98470020F7E710B5044608
:105700004069002801DBFFF7DDFA4FF0FF336361EA
:105710000023E386238710BD70B50546C06BEE8E6F
:1057200068B12B6C9C1B944228BF1446224630441F
:1057300001F016FCEB8E2344EB86204670BD044638
:10574000F1E7D0B503681B6904460F461646984733
:1057500090B1236820461B699847E38EE16B86422F
:10576000A8BF064619443246384601F0F9FBE38EDD
:105770003344E3863046D0BD4FF0FF36FAE70000F1
:1057800070B50446054B44F8043B01F1200506467C
:105790000FCD0FC42B682370304670BD58710D00BB
:1057A000F0B59646026889B0976A0A4A02921C1DB3
:1057B0008C4606460FCC03AD0FC523682B70BDF891
:1057C00038300093724602AB61463046B84709B0A4
:1057D000F0BD00BF58710D00F0B5036889B09F6A35
:1057E0000C4B029300F1200604460FCE03AD0FC50B
:1057F00033682B70A38EE28EE16B0093204602ABE0
:10580000B84723680546DB6920469847284609B013
:10581000F0BD00BF58710D00F0B54378022B8DB07C
:1058200005460C46174604D1011D2046FFF7F2FC41
:1058300022E00A2B25D11122002101A801F09EFBB4
:10584000AB6803B305F1080301AE05F1180C186845
:105850005968324603C2083363451646F7D106231A
:1058600001A906A807AE8DF81430FFF791FC0FCE02
:1058700004340FC4336823701FB16888FFF7F2F94E
:1058800038800DB0F0BDEB68002BDBD14FF6FF7018
:105890002E69FFF7DFF98642D4D105F11401C4E780
:1058A0002DE9F04117468EB00022064601AB0846AE
:1058B00011460192FFF7EEF9041E20DB019B2BB38A
:1058C0005B691BB302A8FFF755FC019B00225869D6
:1058D00002A9FFF7A1FF02A8FFF76CFCB0B1336883
:1058E00003ADD3F838800B4B08930FCD09AC0FC430
:1058F0002B6823703A4608A93046C04704460198F1
:10590000FFF7C0F920460EB0BDE8F0814FF0FF343C
:10591000F5E700BF58710D002DE9F047D0F814905D
:10592000B9F1000F90B005460E4690461C463CDB90
:1059300000293AD04FF01C0A09AF524600213846E0
:1059400001F01CFBCDF80CA0DCB100224FF47A7002
:10595000B4FBF0F3CDE9043200FB134358431023AA
:1059600007920690009341F206026B4440F6FF71E5
:105970004846FFF79FF9044620B1204610B0BDE825
:10598000F087082403ABCDE90073686923464246DB
:105990003146FFF79FF9041EEFDB05F1340205F1F4
:1059A0001C013846FFF738FFE7E74FF0FF34E4E724
:1059B00038B5054614462B7D062B084610D140F617
:1059C0001C231380FFF756F908342B1D24F8060C0E
:1059D000143553F8042B44F8042BAB42F9D138BDED
:1059E000042BFCD14FF404731380FFF743F960805C
:1059F0006868FFF72FF96060F1E72DE9F0438BB09D
:105A000003AF4FF01C09984604460D461646002188
:105A10004A46384601F0B2FABDF848103A464046C8
:105A2000FFF7C6FF9DF80D3053B1CDE900796069ED
:105A3000002332462946FFF755F90BB0BDE8F08345
:105A40004FF0FF30F9E7000038B500254FF47A73C6
:105A5000C0E901530B4B03F108026C3303614FF0B3
:105A6000FF330446026043611C30FFF783FB4FF4B1
:105A70000073C4E91035E5862587E56384F848504E
:105A8000204638BDC0710D0010B590F8483004466E
:105A900023B1C06B10B1012100F092FA0023E3633F
:105AA00084F848302364E386238710BD70B504462C
:105AB00016460D46FFF7E8FF0023E66323642EB188
:105AC0002564206C003818BF012070BD002DF8D06F
:105AD0002846FEF7E0FA0123E06384F84830002806
:105AE000EFD0EDE7F8B51746C26B05460C461AB97C
:105AF000016C09B1FFF7DAFF04340FCC05F1200681
:105B00000FC6236833700023286CAF86EB862B8783
:105B1000F8BD37B5C26B04460B462AB9016C19B102
:105B20000193FFF7C3FF019BE16B0022E28622870E
:105B300041B1226C32B12068056B2046A84700288D
:105B4000C8BF208723681B69204603B0BDE83040EA
:105B50001847000010B5074B03F108026C330446E8
:105B600002600361FFF7CAFD2046FFF78DFF204664
:105B700010BD00BFC0710D0010B50446FFF7EAFF6D
:105B800020464C2100F01CFA204610BD704741749D
:105B90007047704708B5007CFFF7E4F820EAE07032
:105BA00008BD08B5007CFFF7BDF820EAE07008BD2D
:105BB00008B5007CFFF7C6F840EAE07008BD08B5FC
:105BC000007CFFF7B7F840EAE07008BD007CFFF703
:105BD000C1B837B5457C04462DB1207C03B0BDE883
:105BE0003040FFF797B8007C0191FFF7BBF8002821
:105BF0000199F2DC284603B030BD10B514210446EB
:105C000000F0DEF9204610BD10B54FF0000C044640
:105C1000084611464FF47A72C4E901C2044A226070
:105C20000122207462741A46FFF76CF8204610BDFA
:105C300038720D0013B50D4C2178BFF35B8F11F056
:105C4000010110D120460191FEF729FA019950B1C6
:105C5000074B084A0848FFF7D7FF2046FEF724FA0B
:105C6000064801F077F9044802B010BDF0E50320C2
:105C700078E60320F4E50320FCE60320935B0D00A7
:105C8000417470477047704708B50021007CFFF7EA
:105C900091F840EAE07008BD08B50121007CFFF7EB
:105CA00089F840EAE07008BD08B5007CFFF77AF893
:105CB00020EAE07008BD08B5007CFFF76BF820EA29
:105CC000E07008BD13B50446007C0191FFF76AF847
:105CD0000028019901DC607C20B1207CFFF772F87C
:105CE00020EAE07002B010BD007CFFF773B810B579
:105CF0001421044600F064F9204610BD10B54FF49D
:105D00007A73044608460021C4E90113044B23605A
:105D10000123207463741146FFF72CF8204610BD50
:105D200068720D00007C0022FFF72CB8007CFFF7A2
:105D300059B810B514220446002101F01FF920467D
:105D400010BD000010B50F4C88B003A8FFF7F1FF9D
:105D50002178BFF35B8F11F001010FD12046019133
:105D6000FEF79DF9019948B103AA0748FFF7C6FF5E
:105D70002046FEF799F9054801F0ECF8024808B012
:105D800010BD00BF10E7032014E70320855C0D0061
:105D9000002240681146FFF781B800224068114692
:105DA000FFF79CB8002240681146FFF7A7B840688B
:105DB0000022FFF79BB84068002281F00101FFF745
:105DC00085B8002340681A461946FFF777B80023C4
:105DD00040681A461946FFF769B800224068114624
:105DE000FFF74CB8406800220221FFF74FB80023AC
:105DF00040681A46FFF73AB8024B04225A60024A3A
:105E00001A60704728E7032098720D00014B186054
:105E1000704700BF84E4032008B50B4B43B1FFF784
:105E200091FF03681B699847002801DDAFF30080EC
:105E3000064B43B1FFF7FEFE03681B699847002835
:105E400001DDAFF3008008BD00000000000000008D
:105E500008B5FFF7E1FFFEF78DFE014B186008BDA6
:105E600038E703200548064A064908B5121A01F02A
:105E700077F8054B054A1A6008BD00BF00F40320FF
:105E800004F4032040730D0000F403201E1C279A25
:105E900007B5002300931A466FF07701FEF7CCFF99
:105EA00003B05DF804FB000007B543880A2B08D057
:105EB000502B0BD1094B1B684BB103B05DF804EBC1
:105EC0001847FFF7E5FF03B05DF804FB00230093DC
:105ED0001A466FF07701FEF7AFFFF4E734E70320CF
:105EE00010B512480021FFF741F8114B1A68114B09
:105EF0009A42114B0CBF012200221A7001D0FFF709
:105F0000B1FFFEF72FFE044601F040F80B4B13B132
:105F10002046AFF3008000210848FEF79FFFBDE850
:105F2000104007480021FEF77DBF00BF0D5E0D0049
:105F300000F403201E1C279A30E703200000000015
:105F4000A95E0D007047000038B50023202543806E
:105F5000142304460380856005610649284600F045
:105F600031F804496060284600F02CF8E0602046D3
:105F700038BD00BFCC720D0030B50E4D2978BFF38F
:105F80005B8F11F0010487B011D12846FEF787F826
:105F900068B101A8FFF7D8FF01AA21460648FFF71C
:105FA00063F82846FEF780F8044800F0D3FF024863
:105FB00007B030BD3CE7032040E70320455F0D00FC
:105FC000FEF76BB8FEF767B82DE9F84F55EC104BAC
:105FD000CD4B25F000469E42AA460DDDCB4B9E429E
:105FE00000F3B58000F0B080BAF1000F40F3F68006
:105FF0009FEDA90BBDE8F88FC54B9E4200F3C3800F
:10600000A3F1DE739E4240F3AC804FF0FF3B22468B
:106010002B462046294600F075FC02460B4680467A
:10602000894600F06FFC9EA3D3E9002306460F4685
:1060300000F068FC9CA3D3E9002300F0ADFA3246DF
:106040003B4600F05FFC9AA3D3E9002300F0A4FADA
:1060500032463B4600F056FC97A3D3E9002300F0FC
:106060009BFA32463B4600F04DFC95A3D3E9002352
:1060700000F092FA32463B4600F044FC92A3D3E98A
:10608000002300F089FA42464B4600F03BFC90A307
:10609000D3E90023804689463046394600F032FC79
:1060A0008DA3D3E9002300F075FA32463B4600F099
:1060B00029FC8BA3D3E9002300F06CFA32463B465F
:1060C00000F020FC88A3D3E9002300F063FA3246F5
:1060D0003B4600F017FC86A3D3E9002300F05AFAF0
:1060E00032463B4600F00EFCBBF1FF3F02460B463A
:1060F00078D04046494600F04FFA864E22462B465D
:1061000000F000FC844B06EBCB064FEACB0B9B4424
:10611000DBE9002300F03EFA22462B4600F03AFA73
:1061200002460B46D6E9000100F034FABAF1000F3E
:1061300041EC100B13DA10EE901A024601F1004305
:1061400043EC102BBDE8F88F002C3FF44DAF2246F6
:106150002B462046294600F01FFA41EC100BBDE803
:10616000F88F65A3D3E9002310EE100A294600F04A
:1061700013FA6A4B002200F055FE00283FF445AFA9
:1061800045EC104BEBE700F0D3F8654B9E4255EC25
:10619000104B39DCA3F550239E4262DC10EE102A2E
:1061A00010EE100A2B46294600F0F6F95B4B002250
:1061B00000F0F0F900224FF0804306460F462046DB
:1061C000294600F0E9F902460B463046394600F010
:1061D000C3FC4FF0000B04460D4618E79FED480B3B
:1061E000BDE8F88F4046494600F0D6F922462B46D6
:1061F00000F088FB02460B462046294600F0CAF90B
:1062000041EC100BBDE8F88F464B9E421DDA10EEB4
:10621000100A454B0022294600F0BCF9424B0646C5
:106220000F4600222046294600F06CFB3B4B002223
:1062300000F0B2F902460B463046394600F08CFCBD
:106240004FF0020B04460D46E1E62B4610EE102AF5
:106250003649002000F080FC4FF0030B04460D4649
:10626000D5E610EE100A2D4B0022294600F092F9D7
:106270002A4B002206460F462046294600F08CF99C
:1062800002460B463046394600F066FC4FF0010BE3
:1062900004460D46BBE600BF182D4454FB21F93FD0
:1062A00011DA22E33AAD903FEB0D76244B7BA93F08
:1062B000513DD0A0660DB13F6E204CC5CD45B73FD6
:1062C000FF8300922449C23F0D5555555555D53F82
:1062D0002F6C6A2C44B4A2BF9AFDDE522DDEAD3F76
:1062E0006D9A74AFF2B0B33F711623FEC671BC3F16
:1062F000C4EB98999999C93F9C7500883CE4377E16
:10630000182D4454FB21F9BFFFFF0F440000F07F1C
:10631000FFFFDB3FD0720D00F0720D000000F03F78
:10632000FFFFF23F008003400000F83F0000F0BF95
:1063300051EC100B10EE102A21F0004343EC102B0F
:10634000704700BF2DE9F0432DED028B8BB055EC6B
:10635000104B00F055F8284BB0EE408AF0EE608A02
:1063600093F900707B1C12D022462B46204629460A
:1063700000F062FD064650B94FF000084FF00009EA
:106380002046294642464B4600F02EFD40B9B0EE6D
:10639000480AF0EE680A0BB0BDEC028BBDE8F08352
:1063A000164B08960122CDE90445CDE9024500923D
:1063B000019397B142464B464046494600F0CCFB1C
:1063C000022FCDE906010AD1FEF7C8FD21230360A3
:1063D000089B63B99DED068BD9E7CDE90689684630
:1063E00000F0D2F80028EFD0089B002BF2D0FEF787
:1063F000B5FD089B0360EDE780E4032010730D00FA
:106400002DE9F0415F4A57EC106BBA4300F09880D9
:10641000002F10EE104A3B464EDD39155BD0C3F31A
:106420001303CA0743F48013A1F2FF3E03D45B00B9
:1064300003EBD4736400E20F4FF0000C02EB430354
:106440004FEA6E0E6400664616254FF40012B1182E
:10645000994202DC5B1A8E1894445B00013D03EB09
:10646000D4734FEA52024FEA4404F0D12F46202061
:106470004FF0004209E03ED0E10F01384FEA5202EE
:1064800001EB43034FEA44043ED0B34202EB050163
:10649000F1DD002901EB020509DBB0469B1BA1429F
:1064A00088BF03F1FF33641A17444646E4E7002D22
:1064B000F3DB06F10108F1E727F00042324336D062
:1064C000002F4DD13946E20A153964051346002ADA
:1064D000F9D0D70251D400205B00DE02054600F15E
:1064E0000100F9D51A4623468440C0F12000C3407C
:1064F0001343491B93E7A142BED8002901EB0205D3
:10650000D5DB98460023CEE7234312D178084FEA23
:106510006C0101F17F511CF0010F01F5001118BF52
:1065200040F0004001EB0E53024643EC102BBDE857
:10653000F0817B1C16BF781C0CF1010C4008E6E7CB
:1065400010EE102A10EE100A3B46394600F0DAF938
:1065500032463B4600F020F841EC100BBDE8F081DC
:1065600010EE102A3046394600F014F802460B4669
:1065700000F0F2FA41EC100BD9E7234620204FF04F
:10658000FF35B4E70000F07F0020704781F0004144
:1065900002E000BF83F0004330B54FEA41044FEA08
:1065A000430594EA050F08BF90EA020F1FBF54EAA3
:1065B000000C55EA020C7FEA645C7FEA655C00F03F
:1065C000E2804FEA5454D4EB5555B8BF6D420CDD10
:1065D0002C4480EA020281EA030382EA000083EA93
:1065E000010180EA020281EA0303362D88BF30BD33
:1065F00011F0004F4FEA01314FF4801C4CEA113189
:1066000002D0404261EB410113F0004F4FEA0333E7
:106610004CEA133302D0524263EB430394EA050F72
:1066200000F0A780A4F10104D5F1200E0DDB02FAE1
:106630000EFC22FA05F2801841F1000103FA0EF275
:10664000801843FA05F359410EE0A5F120050EF13B
:10665000200E012A03FA0EFC28BF4CF0020C43FA6C
:1066600005F3C01851EBE37101F0004507D54FF079
:10667000000EDCF1000C7EEB00006EEB0101B1F5C9
:10668000801F1BD3B1F5001F0CD349085FEA30000F
:106690004FEA3C0C04F101044FEA445212F5800F1A
:1066A00080F09A80BCF1004F08BF5FEA500C50F1B7
:1066B000000041EB045141EA050130BD5FEA4C0C9A
:1066C000404141EB0101013C28BFB1F5801FE9D2F7
:1066D00091F0000F04BF01460020B1FA81F308BF1A
:1066E0002033A3F10B03B3F120020CDA0C3208DDE6
:1066F00002F1140CC2F10C0201FA0CF021FA02F1C1
:106700000CE002F11402D8BFC2F1200C01FA02F130
:1067100020FA0CFCDCBF41EA0C019040E41AA2BF55
:1067200001EB0451294330BD6FEA04041F3C1CDA1D
:106730000C340EDC04F11404C4F1200220FA04F03D
:1067400001FA02F340EA030021FA04F345EA0301E7
:1067500030BDC4F10C04C4F1200220FA02F001FAA9
:1067600004F340EA0300294630BD21FA04F029462B
:1067700030BD94F0000F83F4801306BF81F48011C4
:106780000134013D4EE77FEA645C18BF7FEA655C37
:1067900029D094EA050F08BF90EA020F05D054EA09
:1067A000000C04BF1946104630BD91EA030F1EBF0E
:1067B0000021002030BD5FEA545C05D14000494112
:1067C00028BF41F0004130BD14F580043CBF01F505
:1067D000801130BD01F0004545F0FE4141F47001EB
:1067E0004FF0000030BD7FEA645C1ABF19461046C6
:1067F0007FEA655C1CBF0B46024650EA013406BFC7
:1068000052EA033591EA030F41F4002130BD00BF85
:1068100090F0000F04BF0021704730B54FF4806442
:1068200004F132044FF000054FF0000150E700BFC3
:1068300090F0000F04BF0021704730B54FF4806422
:1068400004F1320410F0004548BF40424FF000010F
:106850003EE700BF42004FEAE2014FEA31014FEA52
:1068600002701FBF12F07F4393F07F4F81F06051A1
:10687000704732F07F4208BF704793F07F4F04BFEC
:1068800041F40021704730B54FF4607401F00045C9
:1068900021F000411CE700BF50EA010208BF704729
:1068A00030B54FF000050AE050EA010208BF70471A
:1068B00030B511F0004502D5404261EB41014FF483
:1068C000806404F132045FEA915C3FF4D8AE4FF08B
:1068D00003025FEADC0C18BF03325FEADC0C18BF6E
:1068E000033202EBDC02C2F1200300FA03FC20FABF
:1068F00002F001FA03FE40EA0E0021FA02F114440C
:10690000BDE600BF70B54FF0FF0C4CF4E06C1CEA24
:1069100011541DBF1CEA135594EA0C0F95EA0C0F95
:1069200000F0DEF82C4481EA030621EA4C5123EA08
:106930004C5350EA013518BF52EA033541F4801137
:1069400043F4801338D0A0FB02CE4FF00005E1FBEA
:1069500002E506F00042E0FB03E54FF00006E1FB34
:1069600003569CF0000F18BF4EF0010EA4F1FF0477
:10697000B6F5007F64F5407404D25FEA4E0E6D41B7
:1069800046EB060642EAC62141EA55514FEAC520C8
:1069900040EA5E504FEACE2EB4F1FD0C88BFBCF544
:1069A000E06F1ED8BEF1004F08BF5FEA500E50F1F5
:1069B000000041EB045170BD06F0004646EA0101BB
:1069C00040EA020081EA0301B4EB5C04C2BFD4EBED
:1069D0000C0541EA045170BD41F480114FF0000EE6
:1069E000013C00F3AB8014F1360FDEBF002001F054
:1069F000004170BDC4F10004203C35DA0C341BDCCE
:106A000004F11404C4F1200500FA05F320FA04F09F
:106A100001FA05F240EA020001F0004221F00041D3
:106A200010EBD37021FA04F642EB06015EEA430E46
:106A300008BF20EAD37070BDC4F10C04C4F1200576
:106A400000FA04F320FA05F001FA04F240EA020029
:106A500001F0004110EBD37041F100015EEA430EFA
:106A600008BF20EAD37070BDC4F1200500FA05F21A
:106A70004EEA020E20FA04F301FA05F243EA020399
:106A800021FA04F001F0004121FA04F220EA0200A8
:106A900000EBD3705EEA430E08BF20EAD37070BDEE
:106AA00094F0000F0FD101F00046400041EB0101CE
:106AB00011F4801F08BF013CF7D041EA060195F0B0
:106AC000000F18BF704703F00046520043EB03036A
:106AD00013F4801F08BF013DF7D043EA0603704757
:106AE00094EA0C0F0CEA135518BF95EA0C0F0CD062
:106AF00050EA410618BF52EA4306D1D181EA0301A8
:106B000001F000414FF0000070BD50EA410606BFA1
:106B10001046194652EA430619D094EA0C0F02D1E6
:106B200050EA013613D195EA0C0F05D152EA03362B
:106B30001CBF104619460AD181EA030101F0004149
:106B400041F0FE4141F470014FF0000070BD41F092
:106B5000FE4141F4780170BD70B54FF0FF0C4CF46C
:106B6000E06C1CEA11541DBF1CEA135594EA0C0F8B
:106B700095EA0C0F00F0A7F8A4EB050481EA030ED8
:106B800052EA03354FEA013100F088804FEA0333BF
:106B90004FF0805545EA131343EA12634FEA02228D
:106BA00045EA111545EA10654FEA00260EF000414E
:106BB0009D4208BF964244F1FD0404F5407402D2A0
:106BC0005B084FEA3202B61A65EB03055B084FEA31
:106BD00032024FF480104FF4002CB6EB020E75EB2E
:106BE000030E22BFB61A754640EA0C005B084FEA56
:106BF0003202B6EB020E75EB030E22BFB61A7546D3
:106C000040EA5C005B084FEA3202B6EB020E75EB1D
:106C1000030E22BFB61A754640EA9C005B084FEA95
:106C20003202B6EB020E75EB030E22BFB61A7546A2
:106C300040EADC0055EA060E18D04FEA051545EA91
:106C400016754FEA06164FEAC30343EA52734FEA3A
:106C5000C2025FEA1C1CC0D111F4801F0BD141EAB3
:106C600000014FF000004FF0004CB6E711F4801F18
:106C700004BF01430020B4F1FD0C88BFBCF5E06FF8
:106C80003FF6AFAEB5EB030C04BFB6EB020C5FEA08
:106C9000500C50F1000041EB045170BD0EF0004E5D
:106CA0004EEA113114EB5C04C2BFD4EB0C0541EA8F
:106CB000045170BD41F480114FF0000E013C90E68C
:106CC00045EA060E8DE60CEA135594EA0C0F08BF50
:106CD00095EA0C0F3FF43BAF94EA0C0F0AD150EA4F
:106CE00001347FF434AF95EA0C0F7FF425AF1046E2
:106CF00019462CE795EA0C0F06D152EA03353FF40A
:106D0000FDAE1046194622E750EA410618BF52EA86
:106D100043067FF4C5AE50EA41047FF40DAF52EA5A
:106D200043057FF4EBAE12E74FF0FF3C06E000BFF7
:106D30004FF0010C02E000BF4FF0010C4DF804CD04
:106D40004FEA410C7FEA6C5C4FEA430C18BF7FEAC4
:106D50006C5C1BD001B050EA410C0CBF52EA430CF2
:106D600091EA030F02BF90EA020F0020704710F172
:106D7000000F91EA030F58BF994208BF90422CBF01
:106D8000D8176FEAE37040F0010070474FEA410CFA
:106D90007FEA6C5C02D150EA013C07D14FEA430C18
:106DA0007FEA6C5CD6D152EA033CD3D05DF8040B89
:106DB000704700BF8446104662468C4619466346BB
:106DC00000E000BF01B5FFF7B7FF002848BF10F192
:106DD000000F01BD4DF808EDFFF7F4FF0CBF0120D7
:106DE00000205DF808FB00BF4DF808EDFFF7EAFF53
:106DF00034BF012000205DF808FB00BF4DF808ED0E
:106E0000FFF7E0FF94BF012000205DF808FB00BF02
:106E10004DF808EDFFF7CEFF94BF012000205DF88C
:106E200008FB00BF4DF808EDFFF7C4FF34BF012099
:106E300000205DF808FB00BF4FEA410C7FEA6C5C64
:106E400002D150EA013C0AD14FEA430C7FEA6C5C64
:106E500002D152EA033C02D14FF0000070474FF0DC
:106E6000010070474FEA410212F5001215D211D508
:106E70006FF47873B3EB625212D94FEAC12343F037
:106E8000004343EA505311F0004F23FA02F018BFB9
:106E9000404270474FF00000704750EA013005D182
:106EA00011F0004008BF6FF0004070474FF0000045
:106EB000704700BF4FEA4102B2F1E04324BFB3F58F
:106EC000001CDCF1FE5C0DD901F0004C4FEAC00261
:106ED0004CEA5070B2F1004F40EB830008BF20F045
:106EE0000100704711F0804F21D113F13872BCBFFF
:106EF00001F00040704741F480114FEA5252C2F154
:106F00001802C2F1200C10FA0CF320FA02F018BF9C
:106F100040F001004FEAC1234FEAD32303FA0CFCEF
:106F200040EA0C0023FA02F34FEA4303CCE77FEA7E
:106F3000625307D150EA01331EBF4FF0FE4040F4C8
:106F40004000704701F0004040F0FE4040F4000077
:106F5000704700BF002301461A46184600F04AB8A1
:106F60000A44914200F1FF3300D1704710B511F887
:106F7000014B03F8014F9142F9D110BD0244034681
:106F8000934200D1704703F8011BF9E738B50D4B68
:106F90001D68AB6B04467BB91820FDF7C7FF0A4A92
:106FA0000A4BA863C0E90023094B83600B2383814C
:106FB00001220023C0E90423AB6B00221C615A614B
:106FC00038BD00BF84E403200E33CDAB34126DE630
:106FD000ECDE0500034611F8012B03F8012B002A13
:106FE000F9D17047034613F8012B002AFBD1181A78
:106FF000013870472DE9F843DFF8B8800646D8F825
:1070000000001F460D46914600F056F8254B1C68BF
:1070100034B9254C1C60254B13B11B68C4F888306B
:1070200063681F2B07DDD8F8000000F047F84FF029
:10703000FF30BDE8F8834EB3D4F8880088B91C4B04
:1070400023B9D8F8000000F038F8F0E74FF4847066
:10705000FDF76CFF0028F4D00023C0E94033C4F8EA
:107060008800636840F8239001229A4000EB830176
:10707000D0F800311343022EC0F80031C1F88070FF
:1070800002BFD0F804311A43C0F804216368D8F86D
:1070900000005A1C0233626044F8235000F00EF8DE
:1070A0000020C6E7E0E7032054E7032000000000CB
:1070B0002D4F0D00E8E40320704770477047000033
:1070C00021400D005D400D0085400D0089400D0000
:1070D000000000002F74657374002E005769466924
:1070E00020636F6E6E6563746564000000000000CD
:1070F00000000000F34F0D00E94F0D00DF4F0D00C1
:10710000D54F0D00C94F0D00BD4F0D0079520D0038
:1071100081520D00B14F0D00A94F0D009F4F0D0082
:10712000954F0D00B1520D0000000000000000005E
:1071300011500D005B500D0033500D0013500D0029
:107140003B500D0043500D004B500D0053500D00AF
:10715000000000000000000011510D0001510D0061
:1071600003510D006170700000000000000000007D
:1071700039520D0043520D004D520D0057520D0073
:1071800061520D006D520D0079520D0081520D00BB
:1071900089520D0095520D009D520D00A7520D0011
:1071A000B1520D0025592D256D2D25645425483AE1
:1071B000254D3A2553257A0061736374696D650026
:1071C0000000000000000000555B0D00795B0D0021
:1071D000F1550D0019570D00E9550D0009560D0028
:1071E00027560D0041560D0065560D00FD560D0049
:1071F000FB590D00A1570D0019590D00D1550D0077
:10720000E55A0D00A1580D00D9570D00135B0D0074
:1072100043570D00DF550D0081570D00E5550D005A
:1072200043560D00F0FFFFFF000000005D560D000B
:1072300000000000000000008D5B0D00FB5B0D00F6
:10724000D35B0D0099530D00A35B0D00BF5B0D00D8
:10725000B15B0D00CD5B0D008F5B0D00955B0D00EC
:107260000000000000000000875C0D00EF5C0D00D6
:10727000C55C0D0099530D00B75C0D00895C0D00D5
:10728000995C0D00E95C0D00A95C0D00815C0D00AE
:107290000000000000000000EF5D0D00E55D0D0046
:1072A000DB5D0D00915D0D00CF5D0D00C35D0D0038
:1072B00079520D0081520D00B75D0D00AF5D0D00DC
:1072C000A55D0D009B5D0D00B1520D00000000009A
:1072D0004FBB610567ACDD3F182D4454FB21E93FEE
:1072E0009BF681D20B73EF3F182D4454FB21F93FDD
:1072F000E2652F227F2B7A3C075C143326A6813C63
:10730000BDCBF07A8807703C075C143326A6913C0D
:107310007371727400000000FD480D00854F0D0070
:10732000FD4F0D0029520D0085530D0061540D00D5
:1073300099550D00BD550D00F95D0D0000000000D0
:047340000000000049
:10734400D2040000B8710D000100000088E403209D
:107354000000000000000000000000000000000029
:107364000000000000000000000000000000000019
:107374000000000000000000000000000000000009
:1073840000000000000000000000000000000000F9
:1073940000000000000000000000000000000000E9
:1073A40000000000000000000000000000000000D9
:0473B400E5E70320E6
:1073B800FFFFFFFF00000102030405060708090A92
:1073C8000B0C0D0E0F101112131415161718191A8D
:0873D8001B1C1D1E1F202800D4
:0473E0007856341295
:04000003D0004020C9
:00000001FF
